{
  "contractName": "Geekt",
  "abi": [
    {
      "inputs": [],
      "payable": true,
      "stateMutability": "payable",
      "type": "constructor"
    },
    {
      "constant": false,
      "inputs": [
        {
          "name": "badUser",
          "type": "address"
        }
      ],
      "name": "removeUser",
      "outputs": [
        {
          "name": "success",
          "type": "bool"
        }
      ],
      "payable": false,
      "stateMutability": "nonpayable",
      "type": "function"
    },
    {
      "constant": false,
      "inputs": [
        {
          "name": "badImage",
          "type": "bytes32"
        }
      ],
      "name": "removeImage",
      "outputs": [
        {
          "name": "success",
          "type": "bool"
        }
      ],
      "payable": false,
      "stateMutability": "nonpayable",
      "type": "function"
    },
    {
      "constant": false,
      "inputs": [
        {
          "name": "handle",
          "type": "string"
        },
        {
          "name": "city",
          "type": "bytes32"
        },
        {
          "name": "state",
          "type": "bytes32"
        },
        {
          "name": "country",
          "type": "bytes32"
        }
      ],
      "name": "registerNewUser",
      "outputs": [
        {
          "name": "success",
          "type": "bool"
        }
      ],
      "payable": false,
      "stateMutability": "nonpayable",
      "type": "function"
    },
    {
      "constant": false,
      "inputs": [
        {
          "name": "imageURL",
          "type": "string"
        },
        {
          "name": "SHA256notaryHash",
          "type": "bytes32"
        }
      ],
      "name": "addImageToUser",
      "outputs": [
        {
          "name": "success",
          "type": "bool"
        }
      ],
      "payable": false,
      "stateMutability": "nonpayable",
      "type": "function"
    },
    {
      "constant": true,
      "inputs": [],
      "name": "getUsers",
      "outputs": [
        {
          "name": "",
          "type": "address[]"
        }
      ],
      "payable": false,
      "stateMutability": "view",
      "type": "function"
    },
    {
      "constant": true,
      "inputs": [
        {
          "name": "userAddress",
          "type": "address"
        }
      ],
      "name": "getUser",
      "outputs": [
        {
          "name": "",
          "type": "string"
        },
        {
          "name": "",
          "type": "bytes32"
        },
        {
          "name": "",
          "type": "bytes32"
        },
        {
          "name": "",
          "type": "bytes32"
        },
        {
          "name": "",
          "type": "bytes32[]"
        }
      ],
      "payable": false,
      "stateMutability": "view",
      "type": "function"
    },
    {
      "constant": true,
      "inputs": [],
      "name": "getAllImages",
      "outputs": [
        {
          "name": "",
          "type": "bytes32[]"
        }
      ],
      "payable": false,
      "stateMutability": "view",
      "type": "function"
    },
    {
      "constant": true,
      "inputs": [
        {
          "name": "userAddress",
          "type": "address"
        }
      ],
      "name": "getUserImages",
      "outputs": [
        {
          "name": "",
          "type": "bytes32[]"
        }
      ],
      "payable": false,
      "stateMutability": "view",
      "type": "function"
    },
    {
      "constant": true,
      "inputs": [
        {
          "name": "SHA256notaryHash",
          "type": "bytes32"
        }
      ],
      "name": "getImage",
      "outputs": [
        {
          "name": "",
          "type": "string"
        },
        {
          "name": "",
          "type": "uint256"
        }
      ],
      "payable": false,
      "stateMutability": "view",
      "type": "function"
    }
  ],
  "bytecode": "0x6080604052336000806101000a81548173ffffffffffffffffffffffffffffffffffffffff021916908373ffffffffffffffffffffffffffffffffffffffff1602179055506111e1806100536000396000f3fe608060405260043610610098576000357c0100000000000000000000000000000000000000000000000000000000900463ffffffff168062ce8e3e1461009d578063124b1789146101095780636ced1ae9146102075780636f77926b146102c25780637b7284fc146103e95780637f2a6a5c14610455578063985751881461053f5780639f6c9358146105a8578063eb6bbd78146105fb575b600080fd5b3480156100a957600080fd5b506100b26106a1565b6040518080602001828103825283818151815260200191508051906020019060200280838360005b838110156100f55780820151818401526020810190506100da565b505050509050019250505060405180910390f35b34801561011557600080fd5b506101ed6004803603608081101561012c57600080fd5b810190808035906020019064010000000081111561014957600080fd5b82018360208201111561015b57600080fd5b8035906020019184600183028401116401000000008311171561017d57600080fd5b91908080601f016020809104026020016040519081016040528093929190818152602001838380828437600081840152601f19601f82011690508083019250505050505050919291929080359060200190929190803590602001909291908035906020019092919050505061072f565b604051808215151515815260200191505060405180910390f35b34801561021357600080fd5b506102406004803603602081101561022a57600080fd5b810190808035906020019092919050505061094c565b6040518080602001838152602001828103825284818151815260200191508051906020019080838360005b8381101561028657808201518184015260208101905061026b565b50505050905090810190601f1680156102b35780820380516001836020036101000a031916815260200191505b50935050505060405180910390f35b3480156102ce57600080fd5b50610311600480360360208110156102e557600080fd5b81019080803573ffffffffffffffffffffffffffffffffffffffff169060200190929190505050610a22565b604051808060200186815260200185815260200184815260200180602001838103835288818151815260200191508051906020019080838360005b8381101561036757808201518184015260208101905061034c565b50505050905090810190601f1680156103945780820380516001836020036101000a031916815260200191505b50838103825284818151815260200191508051906020019060200280838360005b838110156103d05780820151818401526020810190506103b5565b5050505090500197505050505050505060405180910390f35b3480156103f557600080fd5b506103fe610c79565b6040518080602001828103825283818151815260200191508051906020019060200280838360005b83811015610441578082015181840152602081019050610426565b505050509050019250505060405180910390f35b34801561046157600080fd5b506105256004803603604081101561047857600080fd5b810190808035906020019064010000000081111561049557600080fd5b8201836020820111156104a757600080fd5b803590602001918460018302840111640100000000831117156104c957600080fd5b91908080601f016020809104026020016040519081016040528093929190818152602001838380828437600081840152601f19601f82011690508083019250505050505050919291929080359060200190929190505050610cd1565b604051808215151515815260200191505060405180910390f35b34801561054b57600080fd5b5061058e6004803603602081101561056257600080fd5b81019080803573ffffffffffffffffffffffffffffffffffffffff169060200190929190505050610e74565b604051808215151515815260200191505060405180910390f35b3480156105b457600080fd5b506105e1600480360360208110156105cb57600080fd5b8101908080359060200190929190505050610f54565b604051808215151515815260200191505060405180910390f35b34801561060757600080fd5b5061064a6004803603602081101561061e57600080fd5b81019080803573ffffffffffffffffffffffffffffffffffffffff169060200190929190505050610fe8565b6040518080602001828103825283818151815260200191508051906020019060200280838360005b8381101561068d578082015181840152602081019050610672565b505050509050019250505060405180910390f35b6060600480548060200260200160405190810160405280929190818152602001828054801561072557602002820191906000526020600020905b8160009054906101000a900473ffffffffffffffffffffffffffffffffffffffff1673ffffffffffffffffffffffffffffffffffffffff16815260200190600101908083116106db575b5050505050905090565b6000803390506000600360003373ffffffffffffffffffffffffffffffffffffffff1673ffffffffffffffffffffffffffffffffffffffff16815260200190815260200160002060000180546001816001161561010002031660029004905014801561079d57506000865114155b1561093e5785600360008373ffffffffffffffffffffffffffffffffffffffff1673ffffffffffffffffffffffffffffffffffffffff16815260200190815260200160002060000190805190602001906107f8929190611082565b5084600360008373ffffffffffffffffffffffffffffffffffffffff1673ffffffffffffffffffffffffffffffffffffffff1681526020019081526020016000206001018190555083600360008373ffffffffffffffffffffffffffffffffffffffff1673ffffffffffffffffffffffffffffffffffffffff1681526020019081526020016000206002018190555082600360008373ffffffffffffffffffffffffffffffffffffffff1673ffffffffffffffffffffffffffffffffffffffff1681526020019081526020016000206003018190555060048190806001815401808255809150509060018203906000526020600020016000909192909190916101000a81548173ffffffffffffffffffffffffffffffffffffffff021916908373ffffffffffffffffffffffffffffffffffffffff160217905550506001915050610944565b60009150505b949350505050565b60606000600160008481526020019081526020016000206000016001600085815260200190815260200160002060010154818054600181600116156101000203166002900480601f016020809104026020016040519081016040528092919081815260200182805460018160011615610100020316600290048015610a125780601f106109e757610100808354040283529160200191610a12565b820191906000526020600020905b8154815290600101906020018083116109f557829003601f168201915b5050505050915091509150915091565b606060008060006060600360008773ffffffffffffffffffffffffffffffffffffffff1673ffffffffffffffffffffffffffffffffffffffff168152602001908152602001600020600001600360008873ffffffffffffffffffffffffffffffffffffffff1673ffffffffffffffffffffffffffffffffffffffff16815260200190815260200160002060010154600360008973ffffffffffffffffffffffffffffffffffffffff1673ffffffffffffffffffffffffffffffffffffffff16815260200190815260200160002060020154600360008a73ffffffffffffffffffffffffffffffffffffffff1673ffffffffffffffffffffffffffffffffffffffff16815260200190815260200160002060030154600360008b73ffffffffffffffffffffffffffffffffffffffff1673ffffffffffffffffffffffffffffffffffffffff168152602001908152602001600020600401848054600181600116156101000203166002900480601f016020809104026020016040519081016040528092919081815260200182805460018160011615610100020316600290048015610c0d5780601f10610be257610100808354040283529160200191610c0d565b820191906000526020600020905b815481529060010190602001808311610bf057829003601f168201915b5050505050945080805480602002602001604051908101604052809291908181526020018280548015610c5f57602002820191906000526020600020905b815481526020019060010190808311610c4b575b505050505090509450945094509450945091939590929450565b60606002805480602002602001604051908101604052809291908181526020018280548015610cc757602002820191906000526020600020905b815481526020019060010190808311610cb3575b5050505050905090565b6000803390506000600360008373ffffffffffffffffffffffffffffffffffffffff1673ffffffffffffffffffffffffffffffffffffffff168152602001908152602001600020600001805460018160011615610100020316600290049050141515610e685760008451141515610e5e576000600160008581526020019081526020016000206000018054600181600116156101000203166002900490501415610da25760028390806001815401808255809150509060018203906000526020600020016000909192909190915055505b83600160008581526020019081526020016000206000019080519060200190610dcc929190611082565b50426001600085815260200190815260200160002060010181905550600360008273ffffffffffffffffffffffffffffffffffffffff1673ffffffffffffffffffffffffffffffffffffffff1681526020019081526020016000206004018390806001815401808255809150509060018203906000526020600020016000909192909190915055506001915050610e6e565b6000915050610e6e565b60009150505b92915050565b60008060009054906101000a900473ffffffffffffffffffffffffffffffffffffffff1673ffffffffffffffffffffffffffffffffffffffff163373ffffffffffffffffffffffffffffffffffffffff16141515610ed157600080fd5b600360008373ffffffffffffffffffffffffffffffffffffffff1673ffffffffffffffffffffffffffffffffffffffff16815260200190815260200160002060008082016000610f219190611102565b600182016000905560028201600090556003820160009055600482016000610f49919061114a565b505060019050919050565b60008060009054906101000a900473ffffffffffffffffffffffffffffffffffffffff1673ffffffffffffffffffffffffffffffffffffffff163373ffffffffffffffffffffffffffffffffffffffff16141515610fb157600080fd5b6001600083815260200190815260200160002060008082016000610fd59190611102565b6001820160009055505060019050919050565b6060600360008373ffffffffffffffffffffffffffffffffffffffff1673ffffffffffffffffffffffffffffffffffffffff16815260200190815260200160002060040180548060200260200160405190810160405280929190818152602001828054801561107657602002820191906000526020600020905b815481526020019060010190808311611062575b50505050509050919050565b828054600181600116156101000203166002900490600052602060002090601f016020900481019282601f106110c357805160ff19168380011785556110f1565b828001600101855582156110f1579182015b828111156110f05782518255916020019190600101906110d5565b5b5090506110fe919061116b565b5090565b50805460018160011615610100020316600290046000825580601f106111285750611147565b601f016020900490600052602060002090810190611146919061116b565b5b50565b50805460008255906000526020600020908101906111689190611190565b50565b61118d91905b80821115611189576000816000905550600101611171565b5090565b90565b6111b291905b808211156111ae576000816000905550600101611196565b5090565b9056fea165627a7a723058204f589f58d9dc0bb6919658b9c7e4d60009707b1979c52789e04092c2807abf0c0029",
  "source": "pragma solidity ^0.5.0;\n\n// Simple Solidity intro/demo contract for BlockGeeks Article\ncontract Geekt {\n    address GeektAdmin;\n\n    mapping(bytes32 => notarizedImage) notarizedImages; // this allows to look up notarizedImages by their SHA256notaryHash\n    bytes32[] imagesByNotaryHash; // this is like a whitepages of all images, by SHA256notaryHash\n\n    mapping(address => User) Users; // this allows to look up Users by their ethereum address\n    address[] usersByAddress; // this is like a whitepages of all users, by ethereum address\n\n    // Represent storage objects\n    struct notarizedImage {\n        string imageURL;\n        uint256 timeStamp;\n    }\n\n    struct User {\n        string handle;\n        bytes32 city;\n        bytes32 state;\n        bytes32 country;\n        bytes32[] myImages;\n    }\n\n    constructor() public payable {\n        // this is the CONSTRUCTOR (same name as contract) it gets called ONCE only when contract is first deployed\n        GeektAdmin = msg.sender; // just set the admin, so they can remove bad users or images if needed, but nobody else can\n    }\n\n    modifier onlyAdmin() {\n        require(msg.sender == GeektAdmin);\n        // Do not forget the \"_;\"! It will be replaced by the actual function body when the modifier is used.\n        _;\n    }\n\n    function removeUser(address badUser)\n        public\n        onlyAdmin\n        returns (bool success)\n    {\n        delete Users[badUser];\n        return true;\n    }\n\n    function removeImage(bytes32 badImage)\n        public\n        onlyAdmin\n        returns (bool success)\n    {\n        delete notarizedImages[badImage];\n        return true;\n    }\n\n    function registerNewUser(\n        string memory handle,\n        bytes32 city,\n        bytes32 state,\n        bytes32 country\n    ) public returns (bool success) {\n        address thisNewAddress = msg.sender;\n        // don't overwrite existing entries, and make sure handle isn't null\n        if (\n            bytes(Users[msg.sender].handle).length == 0 && //checks whether or not the User already has an address\n            bytes(handle).length != 0 //checks that the handle value is not null\n        ) {\n            // Creates new user\n            Users[thisNewAddress].handle = handle;\n            Users[thisNewAddress].city = city;\n            Users[thisNewAddress].state = state;\n            Users[thisNewAddress].country = country;\n            usersByAddress.push(thisNewAddress); // PUSH() adds an entry for this user to the user 'whitepages'\n            return true;\n        } else {\n            return false; // either handle was null, or a user with this handle already existed\n        }\n    }\n\n    function addImageToUser(string memory imageURL, bytes32 SHA256notaryHash)\n        public\n        returns (bool success)\n    {\n        address thisNewAddress = msg.sender;\n        if (bytes(Users[thisNewAddress].handle).length != 0) {\n            // make sure this user has created an account first\n            if (bytes(imageURL).length != 0) {\n                // ) {  // couldn't get bytes32 null check to work, oh well!\n                // prevent users from fighting over sha->image listings in the whitepages, but still allow them to add a personal ref to any sha\n                if (\n                    bytes(notarizedImages[SHA256notaryHash].imageURL).length ==\n                    0\n                ) {\n                    imagesByNotaryHash.push(SHA256notaryHash); // adds entry for this image to our image whitepages\n                }\n                notarizedImages[SHA256notaryHash].imageURL = imageURL;\n                notarizedImages[SHA256notaryHash].timeStamp = block.timestamp; // note that updating an image also updates the timestamp\n                Users[thisNewAddress].myImages.push(SHA256notaryHash); // add the image hash to this users .myImages array\n                return true;\n            } else {\n                return false; // either imageURL or SHA256notaryHash was null, couldn't store image\n            }\n            return true;\n        } else {\n            return false; // user didn't have an account yet, couldn't store image\n        }\n    }\n\n    // -------------------------------------------------------\n    //          ACCESSOR / GETTER FUNCTIONS\n    // -------------------------------------------------------\n    // --> are free to call and read-only functions / not state changing\n\n    function getUsers() public view returns (address[] memory) {\n        return usersByAddress;\n    }\n\n    function getUser(address userAddress)\n        public\n        view\n        returns (\n            string memory,\n            bytes32,\n            bytes32,\n            bytes32,\n            bytes32[] memory\n        )\n    {\n        return (\n            Users[userAddress].handle,\n            Users[userAddress].city,\n            Users[userAddress].state,\n            Users[userAddress].country,\n            Users[userAddress].myImages\n        );\n    }\n\n    function getAllImages() public view returns (bytes32[] memory) {\n        return imagesByNotaryHash;\n    }\n\n    function getUserImages(address userAddress)\n        public\n        view\n        returns (bytes32[] memory)\n    {\n        return Users[userAddress].myImages;\n    }\n\n    function getImage(bytes32 SHA256notaryHash)\n        public\n        view\n        returns (string memory, uint256)\n    {\n        return (\n            notarizedImages[SHA256notaryHash].imageURL,\n            notarizedImages[SHA256notaryHash].timeStamp\n        );\n    }\n}\n",
  "sourcePath": "/Users/andreaslempik/DevEnv/playground/eth-blockgeeks/contracts/Geekt.sol",
  "compiler": {
    "name": "solc",
    "version": "0.5.0+commit.1d4f565a.Emscripten.clang"
  },
  "schemaVersion": "3.4.1",
  "updatedAt": "2021-07-15T14:26:14.770Z",
  "networkType": "ethereum",
  "devdoc": {
    "methods": {}
  },
  "userdoc": {
    "methods": {}
  }
}